:020000040800F2
:1000000088A0002079020008BF8100082570000840
:10001000B5810008F916000869BF0008000000005B
:100020000000000000000000000000009D0100082A
:10003000CF1B000800000000F1010008A59D00088A
:10004000930200089302000893020008930200083C
:10005000930200089302000893020008930200082C
:10006000930200089302000893020008930200081C
:10007000930200089302000893020008991B0008ED
:1000800093020008930200089302000893020008FC
:10009000930200089302000893020008ED40000854
:1000A00093020008930200089302000893020008DC
:1000B00093020008930200089302000893020008CC
:1000C00093020008930200089302000893020008BC
:1000D00093020008B5BE00089302000893020008CE
:1000E000B7400008A192000893020008930200089C
:1000F000930200089302000893020008930200088C
:10010000930200089302000893020008930200087B
:10011000930200089302000893020008930200086B
:10012000930200089302000893020008930200085B
:10013000930200089302000893020008930200084B
:10014000930200089302000893020008930200083B
:10015000930200089302000893020008930200082B
:10016000930200089302000893020008930200081B
:1001700093020008930200089302000800000000A8
:100180009302000893020008DFF80CD000F0AEFAEA
:1001900000480047F3C8000888A000202B4B1968CE
:1001A000086800F058B880F30988BFF36F8F4FF0EC
:1001B000000080F3118870470000000006480068C6
:1001C000006880F3088862B661B6BFF34F8FBFF353
:1001D0006F8F00DF00BF00BF08ED00E0DFF80C000C
:1001E000016841F470010160704700BF88ED00E0D4
:1001F000EFF30980BFF36F8F144B1A681EF0100FD6
:1002000008BF20ED108A20E9F04F106008B44FF0CD
:10021000500080F31188BFF34F8FBFF36F8F0DF045
:1002200063FE4FF0000080F3118808BC196808686D
:1002300000F016B81EF0100F08BF00F016B880F3DB
:100240000988BFF36F8F704700BF00BF34000020E4
:10025000EFF30580704730C8B0E8C04FFFF7A3BF89
:1002600030C8B0E8C04FFFF7E5BFB0EC088AB0EC8B
:1002700008CAFFF7E4BF0000064880470648004769
:10028000FEE7FEE7FEE7FEE7FEE7FEE7FEE7FEE746
:10029000FEE7FEE7619E0008890100082DE9F05F96
:1002A0000546002092469B468846064681464024E5
:1002B0001BE0284641464746224600F064F9534673
:1002C0005A46C01A914110D311461846224600F0F2
:1002D0004BF92D1A67EB01084F46224601200021F9
:1002E00000F042F917EB00094E41201EA4F1010471
:1002F000DFDC484631462A46434600F000B830BCB1
:10030000BDE8C09F38B5D0E90221491E01EB41018B
:1003100002EBC1014268C1EB011102EB81010268ED
:10032000C1EB011102EB8102D0E9043101EB410183
:1003300003EB81013023A1F5527191FBF3F4174DCA
:100340006C4302EBC41291FBF3F403FB1411009213
:100350001A2902DB124B1A4400920C2291FBF2F391
:10036000104C6343009C04EBC313009391FBF2F326
:1003700002FB13110C4A08E0491E40F2A324535C0F
:100380006343009C04EBC31300930029F4DC014693
:10039000684600F013F9009838BD00003F0C0F00CC
:1003A0008051010067C203003014010840EA0103D4
:1003B0009B0703D009E008C9121F08C0042AFAD21B
:1003C00003E011F8013B00F8013B521EF9D27047DF
:1003D000D2B201E000F8012B491EFBD27047002287
:1003E000F6E710B513460A4604461946FFF7F0FF34
:1003F000204610BD30B505462A460B4612F8010BC3
:1004000013F8014B08B1A042F8D01CB1002802D06B
:100410006D1CF1E7284630BD10B5044604E00B78AA
:1004200000F8013B03B1491C521EF8D2204610BD12
:10043000CAB2401E10F8011F8A4202D00029F9D129
:1004400000207047421C10F8011B0029FBD1801AC4
:10045000704710B5002200E0521C835C8C5CA34204
:1004600001D1002BF8D1D8B2E1B2401A10BD034639
:1004700011F8012B00F8012B002AF9D1184670471A
:100480002DE9F04791460F4680460446002614F8B1
:10049000015B2DB100F088F80068405DC007F6D11F
:1004A0002B2D02D02D2D18D0641E4A4639462046E9
:1004B00000F0CAF827B13968A14201D1C7F800801D
:1004C00071054FF002040BD54042002803DD0BF00C
:1004D0000BFE0460A007BDE8F08746F48066E4E701
:1004E0000028F8DA0BF000FE04606FF00040F2E73D
:1004F0002DE9F05F93460F468046044600260BF038
:10050000F3FDD0F80090824614F8015B2DB100F0A5
:100510004BF80068405DC007F6D12B2D02D02D2D81
:100520001AD0641E0021CAF800105A4639462046E7
:1005300000F08AF8014627B13868A04201D1C7F817
:100540000080DAF80000022809D0CAF8009070058F
:1005500005D5484200F005B846F48066E2E7084653
:10056000F8E730BCBDE8C09F202A04DB203A00FA3F
:1005700002F1002070479140C2F1200320FA03F3FA
:10058000194390407047202A04DB203A21FA02F0F8
:100590000021704721FA02F3D040C2F120029140BD
:1005A000084319467047000000487047C01401080E
:1005B000014900F003B800005C9C002010B5006801
:1005C0003C22B0FBF2F302FB1303B0FBF2F00B6032
:1005D000B0FBF2F302FB1303B0FBF2F018224B6006
:1005E000B0FBF2F302FB1303B0FBF2F0021D8B60D1
:1005F0000723B2FBF3F403FB1422800040F2B5534F
:1006000000F66C308A61B0FBF3F2B0FBF3F403FB4D
:100610001400443280084A61C8613B2802D3920723
:1006200000D0401C0022074C13460A61E25C824263
:1006300003D8801A5B1C0B61F8E7401CC8600846B1
:1006400010BD0000C41401082DE9F05F8246007857
:10065000002715468B460AF10104B946302801D01F
:100660009DB113E014F8010B0127782803D0582816
:1006700001D045B10AE00DB1102D07D1002710259A
:1006800014F8010B02E0082500E00A250026B04618
:100690000EE005FB080005FB06F1012701EB104603
:1006A0001FFA80F8B6F5803F00D3B94614F8010B65
:1006B000294600F02DF80028EBDABBF1000F05D039
:1006C0000FB1641E00E05446CBF80040B9F1000FB2
:1006D00006D00BF009FD02210160C81E00F003B82E
:1006E00048EA0640FAE730BCBDE8C09F064C074D1B
:1006F00006E0E06840F0010394E8070098471034F2
:10070000AC42F6D3FFF744FDFC1801081C190108A0
:100710003A2800D2303820F02002412A01D3A2F139
:100720003700884201D34FF0FF30704770B58C1806
:1007300010F8015B15F0070301D110F8013B2A11F5
:1007400006D110F8012B03E010F8016B01F8016BE2
:100750005B1EF9D12B0705D40023521E0DD401F8DE
:10076000013BFAE710F8013BCB1A921C03E013F8A7
:10077000015B01F8015B521EF9D5A142D8D30020DC
:1007800070BD00002DE9F8430024674F894680467C
:100790002646254600940C2864D2DFE800F0462661
:1007A00006062646062646462606B8788DF8000038
:1007B000F8788DF80100B8798DF80200F87A8DF894
:1007C00003000421684603F0DBFC30B1012806D0A9
:1007D000022806D0032845D105E0022642E0032680
:1007E00040E006263EE00B263CE078788DF80000DD
:1007F00038798DF80100F8798DF80200B87A8DF813
:1008000003000421684603F0BBFC30B1012806D088
:10081000022806D0032825D105E0012622E004267F
:1008200020E007261EE00A261CE038788DF800003C
:1008300078798DF80100387A8DF80200787A8DF891
:1008400003000421684603F09BFC58B1012804D042
:10085000022804D0032805D103E0052602E008267B
:1008600000E0092646455BD0B857002800DA404230
:10087000C0B20E2E4ED2DFE806F0070C11161B2078
:10088000252A2F34393E43481E2849D301242546C2
:1008900041E01E2844D3012402253CE01E283FD31A
:1008A0000124042537E028283AD30124082532E022
:1008B0001E2835D3012410252DE0282830D301240B
:1008C000202528E01E282BD30124402523E01928C9
:1008D00026D3012480251EE0192821D301242502D6
:1008E00019E019281CD30124650214E0192817D334
:1008F0000124A5020FE0192812D30124E5020AE021
:1009000019280DD30124250305E0192808D3012453
:10091000650300E024B1284603F0F8FB89F80000E5
:100920002046BDE8F8830000DA9700201CB50400DB
:1009300012D0FFF787FD401C0104090CADF804102C
:100940006846009408D000F075FE002804D00348E3
:10095000022140680CF0BEFA1CBD00008C00002093
:10096000C0F30721002905D1034A042150705068C3
:100970000CF0B0BA704700008C00002010B5094C94
:10098000A06800280CD00CF07DFBA0680CF034FBB4
:100990000020A06000F0F0FCBDE8104000F024BE94
:1009A00010BD00008C0000200248012140680CF0BE
:1009B00091BA00008C0000200EB50CF005FB1F4D15
:1009C0000022114668601E480068009068460CF0DE
:1009D00003FBA86003F002FC0121084601F010FDB2
:1009E00040F6B831A8680CF01DFB164803F08CFCEB
:1009F00000F00AFE4FF0FF36770832463946684667
:100A00000CF096FADDE900040828F6D1E00701D0E1
:100A1000FFF7B4FFA00704D5FFF7B0FFE86800F0C8
:100A200007FE6007E9D568781D2805D01E28E4D1A7
:100A3000012000F0EBFDE0E70020FAE78C00002049
:100A4000E8F600086109000810B507480121406870
:100A50000CF040FA0146B0F1004F04D1BDE810405F
:100A600002A00BF005BB10BD500100205B415050AF
:100A70005D2D2D5B455D2D2D5B54494D45525F43EA
:100A80004150313231345D2D726574282564292E30
:100A90000D0A0000F0B504468BB0007800F0DCF9D8
:100AA0002078504D0B2834D2DFE800F006082C34B3
:100AB0003D203F8F879989004BA084E060680068E3
:100AC000FFF7C0FC103087B238460CF08DFE0600F0
:100AD0007BD0606847A34AA290F908100068CDE96E
:100AE0000001394630460BF0D3FA5FE060680078C9
:100AF000022803D0012803D043A064E047A062E0AD
:100B00004BA060E06068FFF711FF03F083FC02F088
:100B10009FFB5AE02878022803D0032801D049A07F
:100B200051E04AA04FE04DA04DE0606840F2E27114
:100B30000088884225D3A0F5FA608DF82B00606804
:100B400080788DF829006068C0788DF82A00606888
:100B500001798DF8281040798DF81400606805A996
:100B600080798DF815006068C0798DF81600002036
:100B70000790069008908DF8170009900AA808F0D1
:100B8000D5FB20200CF030FE06001ED0606801AFBF
:100B90000188C4798379427987E81E00C178009181
:100BA000837835A2202130460BF072FA3046FFF7E9
:100BB000BDFE30460CF0B2FF07E035A003E06878D8
:100BC00002280AD034A0FFF7B1FE02F02DF82870F9
:100BD00002F012F868700BB0F0BD31A0F3E734A05A
:100BE000F1E700005001002057494649206F666632
:100BF00000000000636F6E6E6563743A00000000D1
:100C0000257325732C25640057494649207369676D
:100C10006E616C207765616B0000000057494649A2
:100C2000207369676E616C20676F6F64000000005D
:100C300057494649207369676E616C206D65646928
:100C4000756D000057494649206F6E005749464967
:100C500020646973636F6E6E65637400574946491B
:100C600020536D61727420636F6E666967206973CB
:100C700020676F696E67000025642F25642F256447
:100C800020253032643A253032643A25303264000F
:100C90004254206F666600004254206F6E000000D0
:100CA000425420646973636F6E6E65637400000064
:100CB000425420636F6E6E656374000011B4044883
:100CC000BDF800104180406818BC02210CF002B948
:100CD0005001002010B54FF4FA72112839D2DFE824
:100CE00000F038090909090909090909090C0E1058
:100CF000182028001D30C0B222E0282020E0292042
:100D00001EE01448C068F9B10CF0BCF901211620AE
:100D100016E010480069B9B10CF0B4F901211720B0
:100D20000EE00C48406979B10CF0ACF901211820B3
:100D300006E00848806939B10CF0A4F901211920B6
:100D4000BDE8104001F0F6B9BDE8104011460CF0C6
:100D500069B910BD500100200021172001F0EAB947
:100D60000021182001F0E6B90021192001F0E2B9B4
:100D70000021162001F0DEB90EB50CF025F9154959
:100D8000486000F02BF8144801F0F2FD114D0026E8
:100D90004FF0FF376FF00048AD1C3A4641466846B9
:100DA0000CF0C6F8DDE900040828F6D1E00701D010
:100DB00001F080F8A007F0D568780128287805D0E0
:100DC0000021FFF787FF2E706E70E6E70121FFF725
:100DD00081FFE2E750010020950A000830B585B098
:100DE0001A4803F091FA1A4D002211462868009023
:100DF00068460CF0F1F8174C00221146E060686874
:100E0000019001A80CF0E8F82061A8680022029087
:100E1000114602A80CF0E0F86061E8680022039037
:100E2000114603A80CF0D8F8A06101F06FF9002872
:100E30000AD0286904900022012104A80CF0CCF803
:100E40003221E0610CF0EEF805B030BDBD0C0008B9
:100E500088000108500100200449087048680028F3
:100E600002D004210CF036B870470000B401002015
:100E700003484068002802D008210CF02BB87047C6
:100E8000B401002070B51448C0680CF0FBF8134C96
:100E900060782070E078A070012007F0EDFE2078E7
:100EA0000F4E00EB400506EBC500C178C9060B0EDE
:100EB000817801EB410149060A0E417816F83500A8
:100EC00007F091F9A178207807F010FDBDE8704097
:100ED00000210C2007F00ABDB4010020349C002042
:100EE0003C110108184810B5816800292AD1007802
:100EF000164C0B2826D2DFE800F00606060606256B
:100F00002525191919000021032007F0EFFC20788E
:100F1000062817D1012007F0AFFE50237E221021B2
:100F2000002007F060F9A178207807E00021032075
:100F300007F0DCFC2078072804D1A178BDE8104038
:100F400007F0D4BC10BD0000B4010020349C002088
:100F50001A4830B4806800282DD1194B58790028E0
:100F600029D11978174C01EB410104EBC1011A7921
:100F70008C689978082301EB410103EBC1016158AA
:100F8000A1B19AB1212A11D20B780BB90E48805C1D
:100F9000DB0701D00D4906E0496804E0934201D126
:100FA000487803E0891C0B78002BF7D1002802D089
:100FB00030BC00F01DB830BC70470000B401002008
:100FC000349C00203C110108AE0B0108CF0B010836
:100FD00082B000900448BDF80010818003480221CF
:100FE000406802B00BF076BF349C0020B4010020B2
:100FF0002DE9F041614C604D0C26217894F802C037
:1010000001EB410205EBC2030CEB4C070C287DD22F
:10101000DFE800F0AFAF19190606AFAF57575F5FB3
:1010200084F803C007F090FDA070E17881426DD094
:101030002078002207F04DFCA1782078BDE8F0412F
:10104000012207F046BC022807D0187D800711D581
:10105000BDE8F0410020FFF715BF1422986802EBAD
:10106000C702835C002B51D06170805C207007F058
:1010700051FD06E0187900287BD06170207007F0E0
:1010800095FDA070012007F0F7FD207800EB4006E9
:1010900005EBC600C178C9060B0E817801EB410152
:1010A00049060A0E417815F8360007F09CF8A17839
:1010B000207807F01BFCBDE8F04100210C2007F070
:1010C00015BC996806EBC702895C002951D002461D
:1010D0001AE00A2826D009270B2925D3187D800776
:1010E00003D540F6B83000F071F8207800EB4000EE
:1010F00005EBC0008168A07800EB400006EBC00063
:10110000095C002935D03A46012000E031E007F0C3
:101110003BFE00282DD0A1782078BDE8F0410122C7
:1011200007F004BA0827D7E7617084F803C00B20E2
:1011300020700020A070012007F09EFD207800EBB9
:10114000400005EBC00115F83000CA78D206130E36
:101150008A78497802EB42025206120E07F043F8F1
:10116000A178207807F0C2FB00210C2007F0BEFB1D
:10117000BBE7BDE8F08100003C110108349C002071
:1011800010B50748012140680BF0A4FE0146B0F1FC
:10119000004F04D1BDE8104002A00AF069BF10BDA5
:1011A000B40100205B4F5344204150505D2D2D5B16
:1011B000455D2D2D5B54494D45525F4C4F474F5D6A
:1011C0002D726574282564292E0D0A0001460248F7
:1011D000C0680BF027BF0000B40100200EB50BF073
:1011E000F3FE1F4E706000F03FF84FF0FF376FF0D6
:1011F00000483A46414668460BF09AFEDDE9000495
:101200000828F6D1E0071CD0012007F035FD06F0D4
:10121000E7FF0021032007F069FB124D042028702E
:1012200007F078FCA8702A780146104607F05EFBAC
:1012300000210C2007F05AFBB0680BF0DDFE002007
:10124000B060A00701D5FFF783FE600701D5FFF767
:1012500049FE2007CDD50021032007F047FBC8E752
:10126000B4010020349C00207CB507F057F9144DE0
:10127000002211462868009068460BF0ADFE114C24
:10128000A06002F0B9FF0121002001F0B9F80020B0
:1012900007F050FD0C488178002001F0C9F840F6B5
:1012A000B831A0680BF0BEFE6868002201901146BC
:1012B00001A80BF091FEE060044803F025F87CBD26
:1012C00084130108B4010020B0010020D10F0008F0
:1012D0000BF07AFE0549886001200BF090FC0CF0C1
:1012E0002FFB0028F8D001F01DF9F5E75001002090
:1012F0000146FF208A1E0C2A0CD810290AD2DFE8EA
:1013000001F0091C080A0C0E10121416181E1A09F6
:1013100022200220704701207047002070470320E0
:10132000704704207047052070470620704707204B
:10133000704708207047092070470A2070470B202B
:1013400070470C2070470D2070470000094908794C
:1013500020B101280CD1002008F05ABB887A401E29
:1013600010F0FF00887201D00120F5E70220F3E7BA
:101370007047000070010020012000F0CABF08B5CE
:10138000009313460A460146012000F0CCFF08BD39
:101390002DE9FE4F041E4FF008074FF0070665D0F9
:1013A000DFF8CCA0CAF8044052E0A06800284CD076
:1013B000A089E0B3A2882FA168460AF081FE6846A2
:1013C000FFF740F8A189401E084480B21521B0FB08
:1013D000F1F201FB1208B0FBF1F2B0FBF1F301FBFB
:1013E000130000B101201044C5B2B54232D8781BB9
:1013F000C7B24FEAC70909F0FF016A46002000F0B2
:10140000BAF86846FFF71EF800EB40004006000EF1
:1014100009F0FF01A26800F0AEF8701BC6B2B8F187
:10142000000F12D07819C0000838C1B200E00CE0FB
:10143000A8EB88007E2202EB4000C2B208EB480015
:101440004006000E0823FFF79AFFCAF80040246800
:10145000002CAAD1002E09D07042402101EBC0001F
:10146000C3B2842208210020FFF789FF00F006B8EC
:10147000A80100205B25645D000000001EBCBDE8E3
:10148000E08F00002DE9FE4F041E4FF001054FF0E4
:10149000070664D0DFF8CCA0CAF8004050E0A0688E
:1014A000E8B3A089D8B3A2882FA168460AF008FE45
:1014B0006846FEF7C7FFA189401E084480B2152187
:1014C000B0FBF1F201FB1208B0FBF1F2B0FBF1F35B
:1014D00001FB130000B101201044C7B2B74231D85C
:1014E0004FEAC50909F0FF016A46002000F043F801
:1014F0006846FEF7A7FF00EB40004006000E09F02B
:10150000FF01A26800F037F8E819C5B2F01BC6B2B7
:10151000B8F1000F11D0E8000838C1B200E00CE0CB
:10152000A8EB88007E2202EB4000C2B208EB480024
:101530004006000E0823FFF722FFCAF80440246982
:10154000002CACD1002E0AD06842402101EBC00033
:10155000C3B2E806010E84220020FFF710FF00F05E
:1015600007B80000A80100205B25645D00000000B2
:101570001EBCBDE8E08F08B50B4600920246002174
:10158000012000F010FF08BD2DE9F84380461E46FB
:1015900091460F4600251846089CFEF753FFC0B23F
:1015A000AC464146B8F1010F10D0022907D0B8F17E
:1015B000030F0BD1A04209D8201AC5B206E0A04201
:1015C00004D8201A00EBD070C0F3470505EB4500A6
:1015D00007EB4000C2B24B4661460120009600F086
:1015E000E2FEBDE8F883000008B515200022009057
:1015F00002A311460220FFF7C7FF08BD4556454E1E
:1016000054204C4F4700000070470000074928B1A4
:1016100008680068002807D0FFF7BABE486800696C
:10162000002801D0FFF72EBF70470000A80100205E
:10163000FFF728BF2DE9F041050059D028680028A0
:1016400056D0A888002853D02A4F40F2E731788836
:10165000884201D2401C00E00120788014200CF068
:10166000C3F8040044D0AE888E2E00D98E263046B2
:101670000CF0BAF8A060B8B37988A1803246296826
:10168000FEF794FEA88800258E2802D9A06880F86D
:101690008E50A68125612560F86818B138781E281B
:1016A00003D017E0FC603C6118E03E6930680561DA
:1016B0003068386176B1B06808B10CF02FFA304666
:1016C0000CF02CFA3878401E10F0FF00387001D171
:1016D000FD603D61F86804602061FC603878401C62
:1016E00038700120BDE8F081FFE720460CF016FAC3
:1016F0000020F7E78C000020FEE7000010B501464F
:101700000E22102000F042F80149487110BD00007F
:10171000F800002008B5002000900222694603204E
:1017200000F034F8044948719DF801109DF800005C
:1017300061F39F1008BD0000F800002038B50020BC
:101740008DF800000122694600F020F8074C0028BF
:1017500060710AD19DF80000012200F0FE018DF8B1
:101760000010002000F042F8607138BDF800002041
:101770000E2801D3002070470149085C7047000023
:101780006EFD0008012200F001B800003EB50546DC
:1017900000913220CDE9012001232A46502106483C
:1017A00003F000FA040005D003462A46034904A0CA
:1017B0000AF05EFC20463EBD780300207CFD000858
:1017C0005B434150313231345D2D2D5B455D2D2D14
:1017D00025732C72656164202830782578293A2594
:1017E000642E0A00012200F001B8000037B584B071
:1017F00005A9054600913220CDE9012001232A46A2
:101800005021074803F08AFA040005D003462A460F
:10181000044905A00AF02CFC07B0204630BD0000AA
:10182000780300208FFD00085B4341503132313492
:101830005D2D2D5B455D2D2D25732C7772697465AB
:10184000202830782578293A25642E0A00000000E7
:1018500070B500F01DF8050001D0002070BD0A4EE3
:10186000002406EB4400417816F81400FFF7BAFF95
:10187000641C0543A4B21D2CF3D304480DB9012107
:101880000170007870BD000034FD0008F8000020F1
:1018900038B503240020009003226946FD20FFF79D
:1018A00075FFA4F101040500E4B202D0002CF3D1CD
:1018B0000AE04CB19DF800005A2809D0054906A05D
:1018C0000AF0D6FB012038BD02490DA00AF0D0FB7A
:1018D000284638BDA3FD00085B4341503132313406
:1018E0005D2D2D5B455D2D2D25732C20726561646A
:1018F000204944206661696C7572652E200D0A00CE
:101900005B434150313231345D2D2D5B455D2D2DD2
:1019100025732C2074696D656F75742E200D0A0077
:1019200070B50D4604460BF076F9A04202D2E143B1
:10193000084400E0001BA84201D3012070BD002034
:1019400070BD704738B5694600200AF0F3FE1048B4
:101950000079B0B19DF800209DF801000C4C0021E9
:1019600002EB0020123482B2002004EB012323F8A2
:101970001020401C80B28028F9D3491CC9B210291C
:10198000F2D3802300211A46084609F0A3FF38BD90
:10199000F2860020704700002DE9F84F8146374855
:1019A0001E46174600790D46002865D04846B9F115
:1019B000800F61D2802D5FD209F08CFF6946002034
:1019C0000AF0B8FEEC087019410700D0012101EBC4
:1019D000D000102800D31020834609EB0700802890
:1019E00000D3802000F0FF0A4FF0010E42E0E0003B
:1019F0000830C3B2A81905F00707F446984202D987
:101A0000581BC2B200E032460120114602E00CEB46
:101A10004000C0B2491E11F0FF01F8D19DF800103E
:101A20000140B94001F0FF089DF801100140B940A4
:101A3000B840C043C5B201F0FF0C484613E00F495F
:101A4000123101EB042111F810702F4047EA08070A
:101A500001F8107001EB40014F782F4047EA0C0766
:101A6000401C4F70C0B25045E9D3B01A641C1D46EB
:101A7000C6B2E4B25C45BAD300F002B8F2860020E8
:101A800018BCBDE8E08F000070B5054600246FF07B
:101A9000FF06610000233246074803F041FB641C47
:101AA000E4B2042CF5D3002D04D0BDE87040002032
:101AB00005F0C6BD70BD0000E001002001227421C8
:101AC000014802F015BF00000014004803488021BF
:101AD0000180418000218180C18070478400002006
:101AE000002140B10A2290FBF2F0491CC9B2002843
:101AF000F9D1084670470121FBE7000010B5094CF9
:101B0000608A401E0004000C608209D1E0690BF07D
:101B1000B9FA0120E070BDE81040042008F0A8B830
:101B200010BD000070010020064940B18878401CBB
:101B3000C0B28870042801D9002088707047042042
:101B4000FBE700007001002010B5124CE07870B186
:101B5000012811D002281BD1FFF7B0FF0020FFF7AA
:101B6000E3FF206A0BF08EFA0320E0700BE0E069DF
:101B70000BF088FA0120F8E70220E070608A002864
:101B8000E3D000206082BDE81040012008F070B86A
:101B900010BD000070010020014802F095BC00005B
:101BA0000C03002030B590F844500124AC40056C83
:101BB0006C60046863608368102B036803D09960CD
:101BC0000068C26030BD9A600068C16030BD704777
:101BD00010B50828029C02D009280AD012E09942C8
:101BE00001DB184610BD081901B299420ADD1946F9
:101BF00008E0914201DC104610BD081B01B2914281
:101C000000DA1146084610BD10B50828029C02D023
:101C100009280AD012E0994201DB104610BD0819CC
:101C200001B299420ADD114608E0914201DC1846F2
:101C300010BD081B01B2914200DA1946084610BDDA
:101C4000704738B5002400948DF800306B4600F0E2
:101C500065F838BD704700002DE9FF4F814683B01D
:101C60001C460E464FF0000848071DD00020824653
:101C700027480079002848D04846B9F1800F44D25F
:101C8000802E42D2059A09F025FE059909EB010044
:101C9000802800D3802000F0FF0B3019802800D36B
:101CA0008020C0B201902EE00120E0E71098184992
:101CB00000EB0805F00812314C4601EB002718E054
:101CC000BAF1000F0DD0287869460AF033FD9DF86F
:101CD000000007F8140007EB44019DF8010048706C
:101CE00004E02A78314620460AF040F9641CE4B248
:101CF0006D1C5C45E4D30599083608EB01001FFA1A
:101D000080F80198F6B28642D0D307B000F002B84E
:101D1000F286002030BCBDE8C08F70472DE9F84343
:101D20000C462E4900251F4609791646002922D067
:101D3000802C20D2802E1ED2F8B101281BD148E081
:101D40002038C0B200EB400108EB41006D1C009050
:101D5000EDB20823062231462046FFF77DFFA41D81
:101D6000E4B27A2C02D8785D0028E9D10836002444
:101D7000F6B2802E03D3BDE8F883DFF86480785D87
:101D80000028EED1F7E720381649C0B201EB001861
:101D90006D1C0823EDB21A4631462046CDF800806E
:101DA000FFF75AFF08F10800009006F10800C1B2E1
:101DB00008231A462046FFF74FFF0834E4B2782C78
:101DC00002D8785D0028DED110360024F6B2802ECD
:101DD000D1D2785D0028F2D1CDE70000F286002054
:101DE000C4ED0008ECEF0008704738B502F08EF93A
:101DF0000446FFF7BDFC05460B2C09D86946204672
:101E0000FEF7C0FC20B19DF80000FFF7B1FC0546CD
:101E1000284638BD38B505F041FC04460E4800257B
:101E2000007808B9FFF714FD0B2C12D20121072C02
:101E300001D8732001E07420083CA140CCB269466F
:101E4000FFF7A0FC9DF80000204201D0012500E032
:101E50000025284638BD0000F800002070B50B4D65
:101E60000024286830B1006820B180470446084843
:101E700000F0E8F8686830B1006820B1804704439A
:101E8000034800F0DFF8204670BD0000F00000209D
:101E90009D420008FFF7DCBC60F30702104661F3C7
:101EA0000F2003498968002900D0084770470000C7
:101EB000F800002010B5084C206810B1006900B18E
:101EC00080476068002805D00069002802D0BDE87E
:101ED0001040004710BD0000F00000202DE9F04147
:101EE000544D00273E46E87848B1EE70012128792C
:101EF000FFF7D2FF287968702E71BDE8F0814E4857
:101F000002F056FD2028F8D1FFF704FCE9880446CA
:101F1000A14203D1BDE8F041FFF710BC54B1B4F5C4
:101F2000805F07D0B4F5005F04D0A87810B1401EE0
:101F3000A870EFE7EC80A878204301D10320A870B7
:101F40001CB30020012606FA00F1214201D07F1CBB
:101F5000FFB2401CC0B21028F5D33848FFF7CEFBC3
:101F6000FFF7ECFB6878E8B1012F25D0FFF7C0F947
:101F7000014601200E2959D2DFE801F02F32353811
:101F80003B3E4144474A4D5053562C48FFF7B6FB61
:101F9000FFF7D4FB68780028AFD00021FFF77CFF63
:101FA0006E70AAE72046FFF720FF0400A5D00121AC
:101FB000FFF772FF6C70A0E72046FFF716FF01469F
:101FC0006878814299D010B10021FFF765FFEE706B
:101FD0002046FFF70AFF28718FE704F0010025E093
:101FE000C4F3400022E0C4F380001FE0C4F3C0004B
:101FF0001CE0C4F3001019E0C4F3401016E0C4F371
:10200000801013E0C4F3C01010E0C4F300200DE012
:10201000C4F340200AE0C4F3802007E0C4F3C020EA
:1020200004E0C4F3003001E0C4F340300028B8D12C
:102030006878C8E7F800002078030020DA970020CD
:102040000120704770B5094D0446286818B14169F0
:1020500009B1204688476968002906D049690029E6
:1020600003D02046BDE87040084770BDF000002056
:10207000002807D0044988604878002802D0012150
:10208000FFF70ABF70470000F8000020A0F11E0211
:102090000C2A0FD2DFE802F0060606060606060640
:1020A00006060E06044A5268002A03D09268002AE7
:1020B00000D0104770470000F0000020F8B50D4632
:1020C00005F0ECFA04461048007808B9FFF7C0FBA9
:1020D0000B2C18D20120072C01D8732601E074269E
:1020E000083CA040C4B269463046FFF74BFB9DF860
:1020F00000000DB1204300E0A0438DF80000C1B204
:102100003046FFF76FFBF8BDF800002070B5084DB2
:102110000024286818B1C06808B180470446686880
:1021200018B1C06808B180470443204670BD000064
:10213000F00000202DE9F05F6C4DDFF8B4C16B4C6E
:10214000103D80266A4F4FF0020A4FF0010B4FF40A
:1021500080734FF0400EACF1100C4FF090424FF4F2
:1021600000592A2818D2DFE800F017151B1F252A6E
:102170002F363D53574A4E43475E666E757B8186C8
:102180008A9F9197A4AAAEB2BCBCBCBCBCBCBCBC70
:10219000BCBCB6BC11B1236000F0B2B82B60FBE749
:1021A0004FF0100011B903E0704609B12060F3E769
:1021B0002860F1E74FF400400029F9D0F6E709B1B3
:1021C0002660E9E72E60E7E700294FF010012FD0E5
:1021D00048480160E0E74FF0200031BB4549103925
:1021E0000860D9E709B13B60D6E7CCF80030D3E707
:1021F00058460029DCD0D9E77046F9B920E008201C
:102200000029D5D0D2E74FF0100071B33860C3E792
:102210004FF0200019B904E04FF0100009B19062AE
:10222000BAE79061B8E711B148463249D8E7494664
:1022300030481038CDE74FF4006009B12E49CFE7A0
:102240002D491039CCE709B12B4801E02A48103854
:102250000360A1E711B104212748BAE70420EFE7A2
:102260004FF400400029DCD0D9E725E04FF480404E
:102270000029D6D0D3E748460029D2D0CFE709B10C
:102280001E4801E01D481038066085E709B11B486B
:10229000DEE71A481038DBE74FF4007009B1174940
:1022A0009EE7164910399BE700294FF004018FD1B2
:1022B000BEE748460029A9D1CCF800006CE750469B
:1022C000002997D072E750460029F5D09EE758467E
:1022D0000029F1D09AE709B13E605DE7CCF80060D3
:1022E0005AE700F010B8FFF7D1BE000028180048E8
:1022F000280C0048280800482804004828140048F2
:1023000030BCBDE8C09F30BCBDE8C05FFFF7EBBF8D
:10231000704710B501F090FF002803D00069BDE8B8
:102320001040004710BD2DE9F0411C4615460E46F1
:10233000069F01F081FF002808D0D0F814C03B466A
:10234000224629463046BDE8F0416047BDE8F081AD
:102350002DE9F04387B01D46DDE90E6790468946BA
:1023600001F06AFF04001BD0142101A8FEF737F822
:10237000E26B01A904209047E26B0DF106010520F4
:102380009047BDF80400A8420AD3BDF80600B04249
:1023900006D30097246A33462A4641464846A0475A
:1023A00007B0BDE8F0832DE9F0411C4615460E4606
:1023B000069F01F041FF002808D0D0F81CC03B4622
:1023C000224629463046BDE8F0416047BDE8F0812D
:1023D000094910B5074A0A60084A4A6001F02CFF13
:1023E000040005D0206880472069BDE81040004700
:1023F00010BD0000A8F600087C00002008F60008C8
:1024000010B50C4601F018FF002804D042682046A1
:10241000BDE81040104710BD10B50C4601F00CFF90
:10242000002804D0C2682046BDE81040104710BD07
:1024300013B501F001FF002803D0C26B01A90D20E4
:1024400090471CBD10B50C4601F0F6FE002804D0E4
:1024500082682046BDE81040104710BD0C4910B5F9
:102460000020C860086101F10C038882421E9A7046
:10247000C1F81600C1F81A00C88301F11600827075
:102480000BF098FABDE81040024800F05DBA000079
:10249000049700209D42000818B400280DD0084B76
:1024A0009A68002A09D09C1D20706170D888ADF808
:1024B0000000009801B010BC104718BC7047000025
:1024C000A00000202DE9F041144D154C012628688C
:1024D0000027017820780A2913D020B12770002125
:1024E0000D20FFF7D9FF686900780A2860780DD0C1
:1024F000002810D067700021BDE8F0411020FFF7E0
:10250000CBBF0028EFD126700121E9E7002802D1D6
:1025100066700121F0E7BDE8F0810000ECFC0008E6
:10252000A000002010B5044600F0CAF8204600F0D4
:1025300005F82046BDE81040FFF7C4BFF8B55C4C75
:1025400000265C49606A5C4D00780A2820D04879F2
:10255000002839D034460E464C7100211A20FFF76E
:10256000E9FD00211B20FFF7E5FD00211C20FFF7FE
:10257000E1FD00211D20FFF7DDFDB368A5F1160781
:10258000002B7BD029796879814279D30A1A78E0C7
:102590004A4FB7F96800002800DA4042454A0C3239
:1025A0001080B7F97400002800DA40425080B7F973
:1025B0008000002800DA40429080012048710879AC
:1025C000032802D2401C0871F8BD3A4803210C30A0
:1025D00001F0F3FDA0B9B7F97400B7F98010421A01
:1025E0000A2A05DB606A807850B1606A867007E06D
:1025F0000144B7F96800B0EB410FE5DA6E28E3DB80
:1026000095F90200411C05D0616A8978884208DB8F
:10261000401A07E0606A8078A870606A8078287144
:1026200008E0081A0828CFDA606A8078A870606A23
:102630008078687195F90200012801DC1A2002E017
:10264000082802DC1B2068700AE00D2801DC1C2031
:10265000F9E70F2801DC1D20F5E768780028B3D0E2
:10266000C1B228788142AFD00021FFF763FD6878BE
:102670000121FFF75FFD68782870F8BD10E0FFE7E3
:10268000421AD2B2082A0BD3814201D9202000E09D
:102690001F2028726C72F88BADF8000000989847E4
:1026A00047F8164FFF207C603C81A8703471E4E746
:1026B000FCFB0008A00000201A97002024970020AF
:1026C0002DE9F84F984C994A0F252068B2F9081067
:1026D00000270378B2F94400DFF85482954E4FF09A
:1026E000010A0A2B11D0F2780E2A71D319296FDD55
:1026F0006E286DDA21680A20087020680121857033
:1027000000F01AB91520FFF715BD002900DA49427B
:10271000884B0C3B1980B2F91410002900DA4942A9
:102720005980B2F92010002900DA49429980B2F9A3
:102730002C10002900DA4942D980B2F9381000295A
:1027400000DA494219819146002800DA4042588156
:1027500088F8037098F80200032804D2401C88F817
:10276000020000F0EEB8734806210C3801F025FD98
:1027700006281DD2DFE800F0030A0E1014182068A6
:1027800080780F282FD0206887702CE021680220E5
:10279000887014E0052004E020680821817022E0A0
:1027A0000B20216888701EE021680E20887010E0E0
:1027B00020688078022802D00E280AD013E0B9F9E8
:1027C000081023290FDDB9F91400B428DBDB0AE077
:1027D00069E0B9F90810192905DDB9F944006E2836
:1027E00001DA2068857096F90200411C08D0216842
:1027F0008978884201DB401A00E0081A0828B0DA1C
:1028000020688078B07040B218B1042803DA102034
:1028100004E0757017E0082802DA1120707012E0E9
:102820000B2801DA1220F9E70E2801DA1320F5E768
:102830000F2802DA4FF01400F0E702D14FF0150034
:10284000ECE7707860B171783078814208D000216F
:10285000FFF770FC70780121FFF76CFC7078307026
:10286000F07948B1F07803280BD896F902000C28CB
:1028700007DBB570357113E086F807A0B0783071CA
:102880000EE0317996F90200814201DB081A00E07E
:10289000401AB179C0B2814202D2B1787171B0717F
:1028A000B078F0705DE798F803000028FAD188F856
:1028B00003A000210F20FFF73DFC00211020FFF7AF
:1028C00039FC00211120FFF735FC00211220FFF711
:1028D00031FC00211320FFF72DFC00211420FFF70D
:1028E00029FC00211520FFF725FC124CD8F8081010
:1028F0000C3C81B1B07908280DD3307972799042BF
:1029000001D91D2000E01E2030727772A08AADF838
:10291000000000988847E7602761A782FF20B07019
:1029200088F802701DE70000FCFB000824970020D7
:10293000A00000201097002018BCBDE8E04FFFF772
:10294000E1BE18BCBDE8E08F82B000280CD0014683
:102950000648821D81601278002A05D0C088ADF833
:102960000000009802B0084702B07047A0000020A5
:10297000002801D00149486070470000080100208C
:1029800010214FF0904001F0AFBF00002DE9F04161
:102990003C4EA4B0F06B10B93BA000F07BFB3C4870
:1029A000FDF750FD801D82B209233AA113A809F05A
:1029B00087FB3748FDF746FD87B2002413ADDFF8EB
:1029C000D0800AE0FDF73EFD80B218F804202844CC
:1029D00031A109F075FB641CA4B2BC4213A8F1D369
:1029E000FDF730FD84B2F06B78B1FDF72BFD80B2BE
:1029F000F16B021F461E831E8A5C8E5DCB5C8DE8E8
:102A00004C00401F0B5C281905E00020009001904D
:102A10000290281900235F2221A109F051FB26A171
:102A200003A8FDF724FD03A8FDF70CFDC0F13E004F
:102A300084B203A8FDF706FD03A9084413AB22A244
:102A4000214609F025FB03A8FDF7FCFC402806D928
:102A500003A8FDF7F7FC01461CA009F009FB23A021
:102A600000F06CF825A000F069F803A928A000F098
:102A7000CDFF074929A00A3100F0C8FF24B0BDE806
:102A8000F0810000F4970020424C4541444452003C
:102A900004FE00082530325825303258000000006E
:102AA00025303258253032582530325825303258AA
:102AB00025303258000000002230323031303630BC
:102AC0003330333032413000257322004572726F4B
:102AD0007220424C45204144562064617461207448
:102AE0006F6F206C6F6E673A25640A00424C454751
:102AF000415454535352564352450000424C4547AB
:102B00004154545353525653544152540000000000
:102B1000424C45414456444154410000424C454ECC
:102B2000414D450001A102A000F070BF310000003E
:102B300043574155544F434F4E4E00002DE9F84343
:102B4000194C8046607818B103273846BDE8F883F1
:102B5000012060704046FDF775FC083087B23846AA
:102B60000AF042FE05004FF0000614D04046FDF783
:102B700069FC98B10DA0009043460DA23946284645
:102B800009F086FA284601F017FA074628460AF0A7
:102B9000C5FF6670D9E766700120D7E706A23946FF
:102BA000284609F075FAEDE7F49700200D0A0000B9
:102BB00041542B257325730041540D0A0000000079
:102BC000034810B5C06906F0F9FE01481C3010BD7D
:102BD000F4970020014800787047000008010020A9
:102BE0000148C06870470000F49700200148C06B9E
:102BF00070470000F4970020014890F839007047B2
:102C0000F49700200148006970470000F497002005
:102C10000148C06A70470000F49700200148806AAC
:102C200070470000F49700200148007A70470000C8
:102C3000F497002000B58BB014220A496846FDF7CE
:102C4000B5FB002168460AF0A8F9064914221431A0
:102C500005A8FDF7ABFB002105A80AF09EF90BB013
:102C600000BD00008CFF0008F8B520200AF0BCFD74
:102C7000424D04001AD02021FDF7B1FB234620224B
:102C800001213F4806F098FB00B16C6140200AF03A
:102C9000ABFD04000AD04021FDF7A1FB23464022F2
:102CA0000221374806F088FB00B1AC6100266B4674
:102CB0000222012133A006F07FFB022809D19DF8F2
:102CC00000005A2805D19DF8010008B1012600E056
:102CD00000260A2403E0D0B9642009F090FF641EA6
:102CE0002878A4B2F7D290B929A0FFF727FF20B126
:102CF000BDE8F84027A009F0BBB9142404E0287807
:102D000028B9642009F07BFF641EA4B2F7D228A181
:102D10002BA000F07BFE10B12CA009F0A9F9012036
:102D2000287032A000F0B6F932A0FFF707FF32A0FA
:102D300000F0B0F933A000F0ADF9022085F83800BA
:102D400033A134A000F062FE34A000F0A3F926B154
:102D50000020FFF71BFE30B10BE032A12DA000F0E8
:102D600055FE002003E0002000F03AFF012000F0B3
:102D700045FEBDE8F84027A000F08CB9F49700208C
:102D8000D43B00086D6973635F706172610000007D
:102D9000525354004572726F723A45535033322089
:102DA0007265736574206661696C65640A00000071
:102DB0003131353230302C382C312C302C3300006E
:102DC000554152545F435552000000004661696C02
:102DD000656420746F20736574204553503332202E
:102DE00055415254206D6F64650A000043574D4FA2
:102DF00044450000474D52004349505354414D4112
:102E00004300000043574155544F434F4E4E00007E
:102E100032000000424C45494E495400424C454165
:102E200044445200300000002DE9FC474FF4806814
:102E30000025DFF8CC90334E0127334C4FF0904AF9
:102E4000404537D04FF40058404531D132212069F8
:102E5000FEF766FD48B34146484601F040FDD8B153
:102E6000A06A10B309F0D7FE216940F6B832411AC2
:102E70002648914204D304210022CDE9000104E058
:102E8000317A39B10195002200906946A06A00F0BC
:102E9000EBFF0AE00197F6E7206A30B10AF0F2F89A
:102EA00000222021504601F023FD09F0B4FE2061EC
:102EB00000F030B83221E068FEF732FDD8B141466B
:102EC000484601F00CFD68B196F8390040B1019513
:102ED0000F48009000226946A06A00F0C5FF0AE092
:102EE0000197F5E7606A30B10AF0CCF800221021B2
:102EF000504601F0FDFC09F08EFEE060D8E70000CE
:102F000000140048F497002008010020913A0008BE
:102F10005D3900080CBCBDE8F08700000249496833
:102F2000002900D008477047080100201CB5002286
:102F3000010014488DF801200192406A4FF090443E
:102F40000CD0012913D002291BD10AF09BF80022D2
:102F50001021204601F0CCFC09200DE00AF092F887
:102F600001221021204601F0C3FC082004E04FF4A8
:102F70007A710AF057F80A208DF800006846FFF7CA
:102F8000CDFF1CBD080100202DE9FC4100252A4C85
:102F900001468DF801500195206A4FF090474FF49B
:102FA0007A76052913D2DFE801F0031423343C00BC
:102FB0000AF068F801222021384601F099FC8DF8CA
:102FC00000506846FFF7AAFFE0690AF05BF8BDE829
:102FD000FC8131460AF026F803208DF8000068468F
:102FE000FFF79CFF65803146E0690AF01BF8EEE7C9
:102FF0000AF048F800222021384601F079FC65806B
:103000003146E0690AF00EF801208DF800000B4807
:1030100005E002208DF8000008481C38C06A0190C5
:1030200005E0C82109F0FEFF04208DF80000684685
:10303000FFF774FFCBE70000080100201098002084
:103040001CB51048104B0024017A5888401C82B2ED
:10305000986A01290FD0022901D003290AD15A8088
:103060000A2A07D309495C80CDE900140022694689
:1030700000F0FAFE1CBD5A800A2AFBD35C8004498A
:10308000F2E70000F4970020080100200131000859
:10309000C93D00082DE9F843144D8046687818B101
:1030A00003273846BDE8F883012068704046FDF7E5
:1030B000C9F9083087B238460AF096FB04004FF091
:1030C000000610D00AA0009043460AA239462046C6
:1030D00008F0DEFF204600F06FFF074620460AF0AA
:1030E0001DFD6E70DDE76E700120DBE7F4970020B8
:1030F0000D0A000041542B25733F2573000000008A
:103100001CB508B109F07BFD1B4C7F2084F824001E
:103110001AA0FFF7BFFF002828D194F824007F28C9
:1031200025D0207A022804D0032802D0022000F003
:103130002BFD94F9240010F1460F01DD022005E07B
:1031400010F1500F01DA002000E001200D490A784B
:1031500090420BD0087000208DF8010008460190C5
:1031600005208DF800006846FFF7D8FE1CBDBDE8BD
:103170001C40012000F008BDF497002043574A414D
:10318000500000000801002010B505A0FFF7D6FC94
:10319000002804D1BDE81040032000F0F5BC10BDAC
:1031A00043494653520000001CB5044690F90030D4
:1031B00010A20621684608F06BFF69460FA000F0D8
:1031C00025FC88B94FF47A7009F019FD0EA0FFF7BD
:1031D00061FF94F900300FA20621684608F058FFFD
:1031E000694606A000F012FC6268002A01D00B4973
:1031F00090471CBD312C256400000000434950530A
:103200004E54504346470000434950534E54505487
:10321000494D4500302C2564000000002498002012
:1032200070B50A4EB468002C0FD06569606808B1AB
:103230000AF074FCE06808B10AF070FC20460AF05D
:103240006DFC2C00F1D10020B06070BD08010020A1
:10325000002100F001B800001CB50B4A0024127ACE
:10326000032A02D0052420461CBD084A40421070A3
:1032700007485160CDE90002044800223038694611
:10328000806A00F0F1FDEEE7F4970020380100209D
:10329000A9310008F8B5054618200AF0A5FA04007F
:1032A00073D01421FDF79BF828212846FDF7C0F8BC
:1032B00000285FD0401C05462C21FDF7B9F8070017
:1032C00058D000263E7032466946284609F064F917
:1032D00008B100982070BF1C22213846FDF7A8F8DD
:1032E000050047D0E81B401C82B22E703946201DD5
:1032F00000F018FBB8B3AD1C2F462C212846FDF773
:1033000097F8050036D02E7000226946384609F03D
:1033100043F908B100982072AD1C2F46222128469F
:10332000FDF786F8050025D0E81B401C82B22E7000
:10333000394604F10C0000F0F5FAA0B1AD1C2921CA
:103340002846FDF775F870B10670002269462846D8
:1033500009F022F908B1009820740D496661886867
:1033600018B98C6011E005E0084641690029FBD1DD
:1033700044610AE0606808B10AF0D0FBE06808B177
:103380000AF0CCFB20460AF0C9FB0120F8BD000082
:103390000801002010B53A21FDF74AF848B1401C59
:1033A0000446FDF74FF8401C82B22146024800F067
:1033B000B9FA012010BD00000098002010B50220CD
:1033C00000F01CFB012010BD1CB5012000F016FB15
:1033D0000548009000200246019004486946806A32
:1033E00000F042FD01201CBDE13B00080801002067
:1033F00010B53A21FDF71CF848B1401C0446FDF712
:1034000021F8401C82B22146024800F08BFA0120CC
:1034100010BD00003098002038B53A21FDF708F8BB
:1034200050B1441C20460022694609F0C2F828B178
:103430000549009881F83800012038BD214603A0D5
:1034400008F016FEF8E70000F497002057726F6E40
:103450006720424C45494E49543A25730A00000002
:10346000044910B5032088700348C06A09F0D6FCEF
:10347000012010BDF49700200801002001207047B2
:10348000044910B5012088700348C06A09F0C6FCE1
:10349000012010BDF497002008010020044910B558
:1034A000002088700348C06A09F0B8FC012010BDF4
:1034B000F497002008010020F8B52221FCF7B8FF9E
:1034C00048B3401C05462221FCF7B2FF040022D07D
:1034D000601B401C82B22946104800F023FA0F4DB1
:1034E0001C3D10B1E86906F069FA0C48E11C122293
:1034F000001D00F017FA661C2C213046FCF798FFDF
:103500000400F8D100226946304609F045F810B1B0
:10351000009885F824000120F8BD000010980020D4
:1035200008B53A21FCF784FF40B110226946401CDF
:1035300009F03FF810B1024900984860012008BD29
:10354000F49700201CB50648009000200246019028
:1035500004486946806A00F087FC01201CBD000019
:10356000893100080801002010B52221FCF760FF16
:1035700040B1401C0446FCF765FF82B22146024878
:1035800000F0D0F9012010BD2098002010B52221B4
:10359000FCF74EFF40B1401C0446FCF753FF82B2DB
:1035A0002146024800F0BEF9012010BD1C98002001
:1035B0002DE9F0472E4803F0C9FA2E48006840680C
:1035C0004FF48061C0F580601FFA80F9894502D30D
:1035D00029A008F04DFD3348804633A1FCF70AFFCF
:1035E000050025D0002028704046FCF72BFFD8B1FD
:1035F00098F800002B2803D02C4E0E27002411E051
:103600002A4E583E0B27F9E756F834104046FCF78F
:10361000F1FE28B106EBC40041684046884718B95E
:10362000641CA4B2BC42EFD3A81C8046002DD4D1A8
:103630004046FCF707FF04041A4D240C07D040460F
:10364000A84504D0014622462846FCF7E5FEA145E0
:1036500004D0A9EB04012819FCF7C1FEC4F5806071
:103660002919BDE8F04782B2014803F0F3BB00001E
:103670001C0200200C0300205761726E696E673ACD
:103680004553503332205541525420444D4120522D
:1036900078204275666665722046756C6C3A2564C2
:1036A0000A000000349800200D0A00000CFF0008FA
:1036B0000149012008707047F497002010B53A21A5
:1036C000FCF7B6FE48B1401C0446FCF7BBFE401CAC
:1036D00082B22146024800F025F9012010BD000009
:1036E0000498002010B53A21FCF7A2FE48B1401C16
:1036F0000446FCF7A7FE401C82B22146024800F0B7
:1037000011F9012010BD00000C98002010B53A21DD
:10371000FCF78EFE48B1401C0446FCF793FE401CAB
:1037200082B22146024800F0FDF8012010BD0000E1
:10373000089800201CB50648009000200246019021
:1037400004486946806A00F08FFB01201CBD000020
:10375000953B0008080100207FB50546FCF772FE86
:1037600080B22918002411F8010C0A2801D101F8AF
:10377000014C3A212846FCF75BFE98B102A9401C97
:1037800000F06AFA70B10948DDE90212C0E90C12D2
:10379000303001908DF8014006208DF80000684619
:1037A000FFF7BCFB04B0012070BD0000F4970020BF
:1037B0000EB509F009FC0D494FF0FF356E084FF4C6
:1037C000806748612A463146684609F0B1FBDDE969
:1037D00000040828F6D1E00701D0FFF7E9FEA007B2
:1037E000F0D5394602A008F043FCEBE708010020C1
:1037F0005761726E696E673A2045535033322055D7
:1038000041525420444D41205278204275666665ED
:10381000722046756C6C3A25640A000038B53A216E
:10382000FCF706FEA0B1441C20460022694608F0C1
:10383000C0FE10B1009828B10AE0214605A008F0AA
:1038400017FC05E00A4864220849806A09F044FA36
:10385000012038BD57726F6E672043574155544F52
:10386000434F4E4E3A25730A00000000252B0008F6
:10387000080100201CB5064800904FF4FA60019042
:10388000044864226946806A00F0EEFA01201CBDFB
:10389000013100080801002070B50B4C0025E06ADA
:1038A00010B10AF03BF9E562E06910B10AF036F9AF
:1038B000E561206A10B10AF031F92562012000F0BB
:1038C00063F9012070BD0000F497002038B53A215B
:1038D000FCF7AEFDB8B1441C20460022694608F052
:1038E00068FE40B10098094910F0FF00487208D006
:1038F000087A28B107E0214605A008F0B9FB02E0EC
:10390000012000F041F9012038BD0000F4970020AB
:1039100057726F6E672043574D4F44453A25730ADF
:103920000000000070B50E460546802A01D38024B1
:1039300000E01446286808B10AF0F0F8204609F0C3
:1039400053FF2860002808D0621E3146FCF764FD52
:103950002968641E00200855012070BD10B51B4C5D
:10396000C0B294F8391081422ED0C8B101282BD1B1
:1039700017A118A000F04AF8002825D1022084F8E9
:1039800038000020FFF702F800281DD100F028F9C8
:10399000012000F033F80120BDE8104006F054B8D3
:1039A000012902D10DA0FFF7C9F80FA0FFF7C6F853
:1039B00011A108A000F02AF8002805D184F83800E9
:1039C00000F01CF80020E7E710BD0000F49700208D
:1039D00032000000424C45494E495400424C45419A
:1039E000445653544F500000424C454741545453A1
:1039F00053525653544F500030000000024981F892
:103A00003900FFF793BA0000F49700202DE9FC4736
:103A1000184D81460E46687818B10326304600F0EE
:103A200033B8012068704846FCF70CFD0446304668
:103A3000FCF708FD2044083080B2804609F0D4FE2F
:103A400004004FF0000711D00BA0CDE900604B46F9
:103A50000AA24146204608F01BFB204600F0ACFAC3
:103A6000064620460AF05AF86F70D7E76F700120BB
:103A7000D5E70000F49700200D0A000041542B25E3
:103A8000733D2573257300000CBCBDE8F087000072
:103A900070B5294C10F0FF0007D0012501281BD07C
:103AA000042847D1607A00B32CE0207A042804D09F
:103AB000032806D0022804D006E0002000F0A2F877
:103AC00002E01EA0FFF73AF81EA11FA0FFF79EFF1D
:103AD00000282FD1607229E01DA11BA0FFF796FFDF
:103AE000002827D16572012020E019A116A0FFF758
:103AF0008DFF38B96572012000F046F84FF47A70F6
:103B000009F07DF8607A012814D1207A042802D1C6
:103B1000002000F077F80FA10FA0FFF777FF20B18A
:103B2000BDE8704010A008F0A3BA0420BDE87040C2
:103B300000F02AB870BD0000F497002043575141AF
:103B4000500000003000000043574D4F4445000036
:103B50003100000031000000435753544152545388
:103B60004D415254000000004661696C6564207448
:103B70006F20737461727420536D617274436F6E41
:103B80006669670A0000000001490872FFF7FCB986
:103B9000F497002070B5002000F034F80C4D6869EF
:103BA0000446FCF74FFC401C82B22346012109A0C9
:103BB00008F041FAA8690446FCF744FC2346401C7F
:103BC000BDE8704082B2022102A008F034BA0000C1
:103BD000F49700207661725F706172616D00000081
:103BE000044890F83800022802D103A0FEF7A6BFCF
:103BF00070470000F4970020424C4541445653540E
:103C00004152540010B509A0FEF798FF20B1BDE85D
:103C1000104009A008F02CBA0E48007A042804D1FC
:103C2000BDE810400120FFF7AFBF10BD435753540C
:103C30004F50534D415254004661696C6564207485
:103C40006F2073746F7020536D617274436F6E6672
:103C500069670A00F49700202DE9F84F0D46814668
:103C60002021FCF7E5FB0746B9F1000F7ED04FF0AD
:103C7000000ADFF8488187F800A007265446494625
:103C800058F83400FCF7B6FB20B108EBC40000790B
:103C9000287103E0641CE4B2B442F0D3B44265D0AE
:103CA000781C202109F042FE5FEA00095ED0202145
:103CB000FCF7BEFB06007FD0DFF800810C2786F8FA
:103CC00000A0002408F13808494658F83400FCF7F1
:103CD00091FB20B108EBC4000079A87003E0641CDC
:103CE000E4B2BC42F0D3BC4266D0701C202109F083
:103CF0001DFE070060D02021FCF79AFB04005BD07A
:103D0000564684F800A00A226946384608F051FC5D
:103D100060B30098E870601C202109F007FE28B30A
:103D2000302109F003FE070046D03A21FCF780FB62
:103D3000040041D0267000226946384608F039FC5C
:103D4000A0B100986871601C302109F0EFFD0700F8
:103D500032D03A21FCF76CFB04002DD026700A22E9
:103D60006946384608F025FC00B100E024E00098E0
:103D7000A871601C302109F0D9FD07001CD020215A
:103D8000FCF756FB040017D026700A226946384615
:103D900008F00FFC80B10098E871601C202109F048
:103DA000C5FD48B10A22694608F003FC20B100981D
:103DB0002880012000F004B80020FBE71CFE00086A
:103DC00018BCBDE8E08F0000F8B51C4D68690028FC
:103DD00033D0FCF737FB0446A869FCF733FB2044DB
:103DE000801D86B2304609F0FFFC040025D014A2E5
:103DF00031466B6908F04CF9FFF712FA214612A020
:103E0000FFF704FEA0B91248806888B1FFF708FAEE
:103E10004FF4FA6008F0F3FEA86900900DA2314655
:103E200020466B6908F034F921460DA0FFF7EEFD3E
:103E30002046BDE8F84009F071BEF8BDF4970020B7
:103E4000222573220000000043574C41500000001F
:103E500008010020222573222C2225732200000055
:103E600043574A415000000008B54FF0000300934B
:103E7000EFF30583002B4FF0000305D06A460AF0EC
:103E8000E0FA012804D105E00AF026FA01280BD057
:103E9000FF2008BD009838B104494FF080500860F9
:103EA000BFF34F8FBFF36F8F002008BD04ED00E01C
:103EB0008CB009F089F82E4C00260121A06108A8D9
:103EC000089608F097FF2B4DE062D5E90401CDE993
:103ED000060106A8A16908F0AAFEA0626868099018
:103EE0000022012109A809F077F82062A8680A9049
:103EF000002201210AA809F06FF86062E8680B90BF
:103F0000002201210BA809F067F8E06140211A485E
:103F1000FCF765FA18484FF4806529464030FCF7F5
:103F20005EFA15492A464031144802F093FF1348BF
:103F30000068016841F0100101601148CDE90306F5
:103F4000002203A9A06AFFF78FFF751E2A4603A867
:103F5000A16A08F071FE03AB93E807008DE8070043
:103F60001028F3D10029F1D010468847EEE7000071
:103F700008010020ECFD0008F49700201C0200203E
:103F8000692C00080949102009680862084840693E
:103F900000280AD0074909684968C1F58061090409
:103FA000090C02D0012108F095BF70471C020020C7
:103FB000080100200C0300202DE9F041244E0746A3
:103FC00001256421F06A08F051FF020006D0214962
:103FD00021A008F04DF80220BDE8F08100207070AB
:103FE0003846FCF72FFA82B23946234802F0E0FF48
:103FF00028B13A46174921A008F03AF813E04FF4E7
:104000007A61F06A08F032FF88B1707811493A4657
:1040100058B120A008F02CF81748B0F8520010B1A1
:10402000154802F067FD022403E014A0F2E71E48E1
:104030008478F06A08F0F2FE3CB16D1EEDB204D354
:104040004FF4FA6008F0DBFDBBE72046C4E7000050
:10405000080100207CFF000825733A6661696C65E1
:104060006420746F206765742073656D6170686F7C
:1040700072652025780A00001C02002025733A662C
:1040800061696C656420746F2073656E64202573AC
:104090000000000025733A7273702074696D656FBB
:1040A00075743A2573000000F497002020214FF02A
:1040B000904000F019BC10B54FF4806000F01AFB7E
:1040C0004FF4006000F016FB4FF4805000F012FB3C
:1040D0004FF4005000F00EFB4FF4804000F00AFB5C
:1040E000BDE810404FF4004000F004BB4FF4807076
:1040F00000F000BB044B4FF4007108B1012200E056
:104100000022184600F0F4BB001000480146FF20D2
:10411000CA0701D0002070478A0701D501207047E7
:104120004A0701D5022070470A0701D503207047CE
:10413000CA0601D5042070478A0601D505207047BC
:104140004A0601D5062070470A0601D507207047A8
:10415000CA0501D5082070478A0501D50920704796
:104160004A0501D50A2070470A0501D50B20704782
:10417000CA0401D50C2070478904FCD50D20704776
:1041800070B50646002096F900200346002A00DAA2
:10419000524255B20EE0F256002A01DB144600E00E
:1041A0005442AC4204DD002A00DA524255B21846AD
:1041B0005B1CDBB28B42EED370BD30B505460020F0
:1041C00002462C8807E035F81230A34201D91C467C
:1041D0001046521CD2B28A42F5D330BD1CB50549F7
:1041E0004020CDE900010022802311460120FEF786
:1041F000AFF81CBD6E0301081CB505492020CDE9B0
:1042000000010021802330220846FEF7A1F81CBDE2
:104210006E01010810B50020FEF7DAF80120FEF764
:10422000D7F8FDF7E1FDFEF719F9FDF717FEBDE838
:104230001040FEF76DB800000100054A4FF0000085
:1042400003D0012900D15068704710687047000002
:104250007C0000200A460146006800280BD08988AF
:10426000002908D02AB1012A03D0022A03D100F084
:104270003BBB00F03DBB70470020074B024600EB04
:104280004001401C03F8212003EB8101C0B20A72F7
:104290004A600728F3D370478C86002071B4194D0B
:1042A0009DF80010BDF800306868212927D2DFE8AA
:1042B00001F026111111111111111111111111110A
:1042C00011111126262626262626262626262620D3
:1042D00020202000002912D00A4A14785278A142E6
:1042E00003D19DF80160964209D0A14201D0002A75
:1042F00005D12B8078BC3222024908F0EDBC78BC95
:10430000704700004001002010B504000CD00820C8
:1043100009F06AFA10B10021C0E9004104498A6835
:104320001AB1CA685060C86010BD8860FBE7000021
:10433000400100201D4886B0D0E90010CDE90310EF
:10434000002103A808F073FC194E184F4FF0FF38F6
:104350000837706042466846716808F06DFCDDE918
:1043600000101029F6D10088ADF800000099B4685B
:10437000CAB2002017F810C0944503D107EB4000E3
:10438000437803E0401CC0B22128F3D363F3070550
:10439000C1F3072000B1012060F30F2521682846F2
:1043A00088476468002CF9D1D4E70000C8FF0008F2
:1043B0004001002008B56B460222042106A004F04B
:1043C000FBFF022803D19DF800005A2801D0642089
:1043D00008BD9DF8010008BD6D6973635F7061726F
:1043E0006100000008B56B460222032106A004F01C
:1043F000E3FF022803D19DF800005A2801D00020D5
:1044000008BD9DF8010008BD6D6973635F7061723E
:104410006100000008B502226B46114607A004F0B7
:10442000CBFF022803D19DF800005A2802D00820B3
:1044300040B208BD9DF80100FAE700006D697363A2
:104440005F70617261000000B8B101680A6822F013
:104450000E020A6001680A6822F001020A6090F800
:104460004420012303FA02F1026C516080F82530E8
:10447000002180F82410084670470120704710B5CD
:1044800090F825100024022903D00421C1630124DF
:1044900018E001680A6822F00E020A6001680A68E2
:1044A00022F001020A6090F84420012303FA02F18D
:1044B000026C516080F82530002180F82410816B57
:1044C00001B18847204610BDF0B4016C0B6801684B
:1044D0000A68446C042606FA04F51D4210D05507FC
:1044E0000ED50A68920603D40A6822F004020A6014
:1044F00090F8441006FA01F5016C4D60016B1BE069
:10450000022606FA04F71F424FF0000C4FF0010597
:1045100016D0970714D50A68920605D40A6822F0C7
:104520000A020A6080F8255090F844108E40016C11
:104530004E6080F824C0C16A002918D0F0BC08473A
:104540000826A6401E4212D0120710D50A6822F093
:104550000E020A6090F84410026C05FA01F15160F5
:10456000C56380F8255080F824C0416BE4E7F0BCB7
:104570007047000070B568B1314C01681423314AAE
:10458000A14209D2304C0C44B4FBF3F39B00C0E9C8
:1045900010230BE0012070BD294C64420C44B4FB95
:1045A000F3F39B004364264B083B0364022380F82B
:1045B00025300C6847F6F0739C43D0E902352B4355
:1045C000D0E9045635432B4385692B43C5692B43FA
:1045D000056A2B4323430B608168B1F5804F21D0DE
:1045E000016C0F2391420ED152F8A81F90F844405D
:1045F000A3409943116090F8443041689940136892
:10460000194311600EE00E49A0310A6890F8444049
:10461000A3409A430A6090F8443042689A400B687D
:104620001A430A600021C162016341638163C1636F
:10463000012280F8252080F82410084670BD000073
:104640000804024000000240F8FFFDBF70B50446B8
:1046500090F82400002501280CD0012084F82400C3
:1046600094F825600020012E06D084F8240002254D
:10467000284670BD022070BD022684F82560E063E4
:104680002068066826F0010606602046FDF78AFAD3
:10469000206B00282068016802D041F00E0106E07E
:1046A00021F0040101602068016841F00A01016005
:1046B0002068016841F001010160D9E7B0F5805F31
:1046C00013D009DCB0F5807F0FD0B0F5806F0ED02D
:1046D000B0F5006F0DD108E0B0F5005F07D0B0F580
:1046E000804F02D0B0F5004F03D108F02DB9FEF78E
:1046F0009BBB7047044910B50A68024202D00860AB
:10470000FFF7DCFF10BD0000140401402DE9F84F55
:10471000DFF8A091002209F1040A0AF1040B4FF01E
:104720000F080BF1040EBEE001249440234075D025
:104730004D68022D01D0122D11D1D50800EB85074F
:104740003E6A5507ED0E08FA05FC26EA0C06D1F87C
:1047500010C00CFA05FC4CEA060CC7F820C007682C
:104760005500032691F804C0AE400CF0030CB7438B
:104770000CFA05FC4CEA070CC0F800C04F68012F8A
:1047800005D0022F03D0112F01D0122F15D1876829
:10479000D1F80CC0B7430CFA05FC4CEA070CC0F882
:1047A00008C0476891F804C0A743CCF3001C0CFA7A
:1047B00002FC4CEA070CC0F804C0D1F804C06FEA50
:1047C0000C07BF0706D1C76AA743CCF3C0049440C7
:1047D0003C43C462C468B4438E68AE402643C6609E
:1047E0004C68E4005ED5344C256E45F00105256625
:1047F000246E22F0030504F0010400942F4C2E19BE
:10480000B7689407250F08FA05F4A743B0F1904F55
:1048100005D02B4CA04204D101241CE042E000242E
:1048200019E0284CA04201D1022414E0264CA042F9
:1048300001D103240FE0254CA04201D104240AE059
:10484000234CA04201D1052405E0224CA04201D115
:10485000062400E00724AC403C43B460D9F8004093
:104860004D464E689C43F60300D51C432C60DAF895
:10487000004055464E689C43B60300D51C432C604F
:10488000DBF800405D464E689C43F60200D51C43B1
:104890002C60DEF8004075464E689C43B60200D599
:1048A0001C432C60521C0B6833FA02F47FF43CAFBB
:1048B00000F012B800040140001002400000014066
:1048C0000004004800080048000C004800100048A0
:1048D000001400480018004818BCBDE8E08F0069CB
:1048E000084000D00120704742694A404261704749
:1048F0000AB1816170478162704700000148006819
:10490000704700000400002090F84120202A24D1A4
:1049100090F84020012A20D0012280F84020242253
:1049200080F841200268136823F0010313600268D5
:10493000136823F480531360026813680B431360F9
:1049400001680A6842F001020A60202180F84110E3
:10495000002180F84010084670470220704790F808
:104960004120202A22D190F84020012A1ED0012285
:1049700080F84020242280F841200268136823F048
:10498000010313600268136823F4706343EA012192
:10499000116001680A6842F001020A60202180F873
:1049A0004110002180F840100846704702207047EF
:1049B00090F841007047000070B5040004D094F8EE
:1049C0004100002510B106E0012070BD84F8405080
:1049D000204600F05BFA242084F84100206801683A
:1049E00021F0010101606068216820F070600861B9
:1049F0002068816821F400418160E0680128A06896
:104A000007D040F4044021688860E068022803D0A1
:104A100006E040F40040F6E721684FF4006048608B
:104A200020684168114A114341602068C16821F43F
:104A30000041C160D4E904010843A16940EA0120B2
:104A40002168C860D4E9070108432168086020682C
:104A5000016841F0010101606564202084F8410093
:104A6000256384F84250002070BD000000800002E1
:104A70002DE9F84F044690F84100DDF828A01F46C4
:104A800090468B4620287CD194F8400001287FD0A6
:104A9000012084F84000FFF731FF06460122009014
:104AA0001923D103204602F095FB38BB212084F85E
:104AB0004100102084F8420000256564C4F8248079
:104AC00067856563618D3348FF274FF080784FF02D
:104AD0000079FF2903D927853A46009031E0618D9E
:104AE0002185009032E05946204602F05DFB31E01E
:104AF00002F0C0FB18B1606C042847D018E0606A6F
:104B0000411C6162216800788862608D401E60856A
:104B1000208D401E0004000C20851BD1608DC8B183
:104B20005346002280212046009602F053FB10B12C
:104B3000032000F033B8608DFF2804D927853A465A
:104B400000954346CFE7608D2085009594F8282096
:104B50004B46C8E7608D3246002851462046C7D1F3
:104B600002F061FB0028C6D120682021C1612068C5
:104B70004268094B1A40426084F8411084F8425060
:104B800000E005E084F840500020D2E70120D0E7A3
:104B90000220CEE70020008000E800FE18BCBDE83F
:104BA000E08F00002DE9FF4F83B00446DDE9108758
:104BB00090F84100DDF848909A469346202874D139
:104BC0005FEA080072D0002F70D094F840000128EE
:104BD0006BD0012084F84000FFF790FE05460122CB
:104BE00000901923D103204602F0F4FA002874D172
:104BF000222084F84100402084F8420000266664A8
:104C0000C4F8248067856663CDE9009553465A460B
:104C10002046049902F058FA28B1606C84F840608C
:104C200004285ED059E0618D3848FF274FF0807826
:104C30004FF0007AFF2904D927853A464346009071
:104C400005E0618D2185009094F828205346204688
:104C5000049902F0A9FA4B4600220421204600954F
:104C600002F0B8FAC8BB2068416A606A421C6262FE
:104C70000170208D401E0004000C2085618DA1F183
:104C8000010161851DD1608DD8B14B460022802184
:104C90002046009502F09EFAF8B9608DFF2806D9EB
:104CA00027853A464346009607E02CE019E0608DE0
:104CB0002085009694F8282053462046049902F057
:104CC00073FA608D0028C6D12A464946204602F074
:104CD000AAFA40B1606C042803D0032007B000F0AA
:104CE00019B80120FAE720682021C16120684268D4
:104CF000074B1A40426084F8411084F8426084F8FF
:104D000040600020EAE70220E8E70000002400807D
:104D100000E800FE30BCBDE8C08F00002DE9FF4F69
:104D200083B00446DDE9108790F84100DDF8489033
:104D30009A469346202870D15FEA08006ED0002F73
:104D40006CD094F84000012867D0012084F840001E
:104D5000FFF7D4FD0646012200901923D103204617
:104D600002F038FA002854D1212084F84100402074
:104D700084F8420000256564C4F824806785656373
:104D8000CDE9009653465A462046049902F0D4F9DC
:104D900028B1606C84F8405004286CD039E0608DF4
:104DA000FF274FF080784FF0007AFF2804D927853D
:104DB0003A464346009505E0608D2085009594F8BD
:104DC000282053462046049902F0EEF9324649461F
:104DD000204602F04FFA18B1606C04284BD018E05E
:104DE000606A411C6162216800788862608D401EA3
:104DF0006085208D401E0004000C208521D1608D2F
:104E0000F8B14B46002280212046009602F0E2F9DC
:104E100028B1032007B000F035B82EE02BE0608DFC
:104E2000FF2804D927853A464346009505E0608D62
:104E30002085009594F8282053462046049902F0D6
:104E4000B3F9608D0028C1D132464946204602F0B0
:104E5000EAF90028C0D120682021C1612068426899
:104E6000074B1A40426084F8411084F8425084F89D
:104E700040500020CEE70120CCE70220CAE7000026
:104E800000E800FE30BCBDE8C08F000070B50068CF
:104E9000174E1222012303210425164C86B0B0427E
:104EA00011D14803CDE90231CDE9000204956946EC
:104EB0001148FFF72BFCA06D40F40010A065A06D19
:104EC00000F4001011E00D4EB0420FD18DE80E003D
:104ED000CDE9031569460A48FFF718FCA06D40F4B8
:104EE0008000A065A06D00F48000059006B070BD44
:104EF00000540040001002400018004800580040D4
:104F00000014004802480168491C01607047000015
:104F10000400002010B5032000F0B2F90F2000F0CB
:104F200005F800F041F9002010BD000010B504465E
:104F300007484FF47A710068B0FBF1F001F068FBAC
:104F400000222146501E00F07BF9002010BD000019
:104F5000D00100202DE9F04104004FF0000504D0FD
:104F600094F83500002618B107E00120BDE8F08173
:104F700084F83460204600F06BF8022084F8350095
:104F80002068016821F0010101601420216800EB14
:104F900085028E506D1C0F2DF8D92068816841F074
:104FA00004018160D4E901100143D4E90A021043ED
:104FB0000143E0690143206A0143A0690143606A3B
:104FC000014320684268214B1A401143416020464A
:104FD00002F04CFBD4E903100143226B60691043DB
:104FE00001432068026822F0FE021143016020683C
:104FF000016841F001010160FFF780FC05464FF4B4
:105000007A7706E0FFF77AFC401BB84201D9082006
:105010000EE020688068C043C007F3D1FFF76EFC44
:10502000054608E0FFF76AFC401BB84203D9102090
:10503000A06303209AE720688068C043C006F1D4CB
:10504000A663012084F8350000208FE70E0000FCE5
:1050500070B50068194986B088422CD11848816D16
:1050600041F400718165806D022500F400700590A7
:10507000082000900024CDE901540B26CDE9034619
:1050800069461048FFF742FB40F2CE700090CDE930
:105090000154CDE9034669464FF09040FFF736FBD7
:1050A00040F20B200090CDE90154CDE9034669465A
:1050B0000548FFF72BFB06B070BD00000024004040
:1050C0000010024000080048000400482DE9F041AB
:1050D000044608202168C8602068816841F0040106
:1050E0008160FFF70BFC054600264FF47A770BE052
:1050F000FFF704FC401BB84206D90420A06384F8E3
:1051000034600320BDE8F08120688068C043000758
:10511000EED4012084F8350084F834600020F1E7F3
:105120002DE9F047044690F835009A4690468946A6
:10513000012806D094F83500022802D00120BDE8ED
:10514000F08794F83500012821D194F83400012823
:105150000BD0012084F83400022684F83560FFF774
:10516000CDFB05464FF47A770CE00220E7E7FFF726
:10517000C5FB401BB84205D9A663002084F8340063
:105180000320DCE720688068C0434007EFD5142285
:10519000216802EB89000A5802EA080242EA0A0280
:1051A0000A500020CBE700001E4808B5016E41F010
:1051B00001010166016E01F001010091816D41F074
:1051C00080518165806D00F080500090032000F0D8
:1051D00057F8002211466FF00B0000F031F8002262
:1051E00011466FF00A0000F02BF8002211466FF014
:1051F000090000F025F800221146501F00F020F8A9
:1052000000221146101F00F01BF800220F21901EF3
:1052100000F016F800220F21BDE80840501E00F0F3
:105220000FB800000010024000F01F020121914061
:105230004009800000F1E020C0F800117047000034
:10524000F0B40E4B1B68C3F30223C3F10704042C14
:1052500000D904241D1D072D01D2002300E0DB1E10
:10526000012606FA04F56D1E0D409D409E40761EF7
:10527000164045EA0601F0BC02F0A2BF0CED00E0CA
:10528000064A00F0070110684FF6FF03184040EA95
:105290000120034908431060704700000CED00E056
:1052A0000000FA051549B0F5007F0868C0F34120F9
:1052B00009D0022805D0086820F4C06040F480605E
:1052C0000860002070470128FBD0086820F4C06007
:1052D00040F4007008600A480A4A0068B0FBF2F027
:1052E0003222504300E0401E10B14A695205FAD400
:1052F00048694005E5D50320704700000070004074
:10530000D001002040420F000248416841F4007182
:1053100041607047007000400248006800F4C060BF
:1053200070470000007000402DE9F84F044600254A
:105330000088E44E2F46010504F1200B1DD5606E58
:1053400078B1B0F5800F11D0B0F5000F04D0B0F5F2
:10535000400F22D001250FE0F06840F48030F0606B
:105360001BE00021201D03F01DFE03E00021584634
:1053700003F0AEFE050010D02F462088C00426D5CD
:10538000A06EC0B1B0F1807F1AD0B0F1007F0DD017
:10539000B0F1407F19D0012518E0D6F88800616E81
:1053A00020F440000843C6F88800E6E7F06840F4BF
:1053B0008030F06009E00021201D03F0F3FD03E0E0
:1053C0000021584603F084FE0546F5B12F462068BB
:1053D000800366D5B06D4FF00009C00009D4B06DF0
:1053E00040F08050B065B06D4FF0010900F0805082
:1053F0000090DFF8D4A2DAF8001041F48071CAF806
:105400000010FFF77BFA804610E0D6F88800A16E06
:1054100020F040700843C6F88800D8E7FFF76EFA1E
:10542000A0EB0800022801D9032532E0DAF80000D9
:10543000C005F3D56DBBD6F8900010F4407015D0C0
:10544000D4F88410814211D0D6F89000D6F890108C
:1054500020F4407041F48031C6F89010D6F89010D6
:1054600021F48031C6F89010C6F89000C0074ED0E5
:10547000FFF744FA804641F2883A05E0FFF73EFA2A
:10548000A0EB08015145CFD8D6F890008007F5D59C
:10549000EDB32F46B9F1000F03D0B06D20F080506E
:1054A000B0652078C00707D0D6F88800A16B20F03F
:1054B00003000843C6F888002078800707D5D6F88F
:1054C0008800E16B20F00C000843C6F888002078C3
:1054D000400707D5D6F88800216C20F0300008433B
:1054E000C6F888002078000707D5D6F88800616CD8
:1054F00020F0C0000843C6F888002078C00609D50F
:10550000D6F88800A16C20F44070084300E05AE00F
:10551000C6F888002078800607D5D6F88800E16CA8
:1055200020F440600843C6F888002088800507D52D
:10553000D6F88800E16D20F440200843C6F88800C2
:105540002088400507D5D6F88800216E20F4401049
:105550000843C6F888002078400607D5D6F88800AA
:10556000216D20F440500843C6F8880020780006DA
:1055700007D5D6F88800616D20F440400843C6F88E
:1055800088002088C00507D5D6F88800A16D20F4D2
:1055900040300843C6F8880020884FF0006580043A
:1055A0004FF0806821D5D6F88800E16E20F0406089
:1055B0000843C6F88800E06EA8420ED1F06840F4B7
:1055C0008010F06011E0D6F89000D4F8841020F438
:1055D00040700843C6F890005CE7404505D10121C2
:1055E000201D03F0DFFC00B107462068000317D53B
:1055F000D6F88800216F20F040600843C6F8880084
:10560000206FA84204D1F06840F48010F06007E0F9
:10561000404505D10121201D03F0C4FC00B107461F
:105620002068400317D5D6F88800616F20F04060ED
:105630000843C6F88800606FA84204D1F06840F4BF
:105640008010F06007E0404505D10121201D03F0E6
:10565000A9FC00B10746208840041AD5D6F8880076
:10566000A16F20F040500843C6F88800A06FB0F149
:10567000805F03D0B0F1005F05D00AE00221201D59
:1056800003F090FC03E00221584603F021FD00B135
:1056900007462088000407D5D6F88800E16F20F07F
:1056A00080400843C6F888002068C00307D556F834
:1056B000880FD4F8801020F000400843306038464E
:1056C00000F004B8001002400070004018BCBDE8B3
:1056D000E08F00002DE9F047DFF8588104460E46C0
:1056E000D8F8000000F00700B0420CD2D8F8001043
:1056F00021F007013143C8F80010D8F8000000F08D
:105700000700B04272D120784B4FC00754D0606878
:10571000032818D0022819D03968D0B149050029CA
:1057200064DAB96821F003010143B960FFF7E6F8D4
:105730000546606841F28831032812D002281DD046
:10574000894638B333E039688901E8E73968890365
:10575000E5E78907E3E7FFF7D1F8411B494501D9A0
:1057600022E08946B868C0F381000328F3D123E022
:10577000FFF7C4F8411B494501D915E08946B868CF
:10578000C0F381000228F3D116E0FFF7B7F8411B00
:10579000494509D8B86810F00C0FF6D10CE0FFF7B6
:1057A000ADF8411B494502D90320BDE8F087B86830
:1057B000C0F381000128F2D12078800705D5B868B0
:1057C000A16820F0F0000843B860D8F80010404607
:1057D00001F00701B1420BD9016821F00701314303
:1057E0000160006800F00700B04201D00120DCE752
:1057F0002078400705D5B868E16820F4E0600843E8
:10580000B8602078000706D5B868216920F4605098
:1058100040EAC100B86000F03BF8B968074AC1F33C
:105820000311515CC840064908600F20FFF77EFB5A
:105830000020BAE70020024000100240E8130108EF
:10584000D00100200148006870470000D00100200E
:105850000448054900688968044AC1F30221515C83
:10586000C8407047D00100200010024028140108F1
:105870000448054900688968044AC1F3C221515CA3
:10588000C8407047D00100200010024028140108D1
:1058900030B52D4A0021084693682C4C13F00C0FAC
:1058A0004FEA640514D09368C3F38103032B04D13A
:1058B000D36803F00303012B0AD09368C3F3810379
:1058C000012B19D09368C3F38103022B16D016E085
:1058D0001168090704D4D2F89410C1F3032102E03F
:1058E0001168C1F303111A4B53F82110936813F098
:1058F0000C0F04D1084602E0204600E028469368D9
:10590000C3F38103032B1DD1D06800F00303D068DB
:10591000C0F30210401C022B04D0032B05D0B1FBB6
:10592000F0F004E0B4FBF0F001E0B5FBF0F0D1687A
:10593000C1F306214843D168C1F34161491C4900C4
:10594000B0FBF1F030BD0000001002400024F40074
:10595000F81301082DE9F84304460078FE4DC0060F
:105960005DD5A86810F00C0F0AD0A069002828683F
:1059700071D040F001002860FEF7C0FF064654E0F9
:105980002868800702D5A06900287DD0216A286890
:10599000000703D5286800F0F00004E0D5F8940073
:1059A000F02202EA1010814216D9084603F016FCD4
:1059B000002869D1286840F0080028602868216A1A
:1059C00020F0F000084328606868E16920F47F4017
:1059D00040EA0120686015E0286840F0080028606F
:1059E0002868216A20F0F000084328606868E169AF
:1059F00020F47F4040EA01206860206A03F0EEFB5B
:105A00000028D6D1FFF744FFA968D44AC1F3031197
:105A1000515CC840D24908600F20FFF787FA29E09F
:105A2000FEF76CFF801B02287ED828688007F7D518
:105A3000286840F0080028602868216A20F0F000FB
:105A4000084328606868E16920F47F4040EA01204B
:105A500068600FE0FFE720F001002860FEF74EFFCE
:105A6000064604E0FEF74AFF801B0228DCD82868BF
:105A70008007F7D42078C00748D0A868C0F3810019
:105A800002281FD0A86800E095E0C0F38100032839
:105A900003D1E868C043800714D06068B0F5803F48
:105AA00017D0B0F5A02F286817D020F480302860D8
:105AB000286820F4802028606068D8B1FEF71EFFB7
:105AC000064613E02868800320D56068002872D05D
:105AD0001CE0286840F48030EDE740F48020286026
